:020000040800F2
:10000000F8FF0120514C0A08ED4C0A08296A04083F
:10001000ED4C0A08ED4C0A08ED4C0A0800000000FF
:10002000000000000000000000000000ED4C0A0885
:10003000ED4C0A0800000000ED4C0A08AD60040811
:10004000ED4C0A08ED4C0A08ED4C0A08ED4C0A0884
:10005000ED4C0A08ED4C0A088D2D0408B52D040856
:10006000DD2D0408052E04082D2E0408BD03000014
:10007000D1030000E5030000F90300000D040000B7
:100080002104000035040000ED4C0A0879660408DC
:1000900081660408ED4C0A08ED4C0A08552E040848
:1000A000ED4C0A08BD440408ED4C0A08AD440408B0
:1000B000CD440408DD440408ED440408711B040821
:1000C0006D1B0408791B0408751B0408ED4C0A0815
:1000D000ED4C0A08293C00004D3D0000993E00000F
:1000E000952E0408ED4C0A0800000000A9450408FC
:1000F00081450408B9450408714504084904000015
:10010000ED4C0A08ED4C0A08FD440408ED4C0A08C1
:10011000E53F0000314100000D4504083176090833
:100120005D040000710400008504000099040000D3
:10013000AD040000ED4C0A08ED4C0A08ED4C0A082D
:1001400000000000000000000000000000000000AF
:10015000C1040000D5040000E90400007D42000055
:10016000811B04087D1B0408ED4C0A08ED4C0A08AD
:10017000ED4C0A08ED4C0A08ED4C0A08000000009E
:10018000ED4C0A08ED4C0A08C94300001545000073
:10019000ED4C0A08ED4C0A08ED4C0A08ED4C0A0833
:1001A000ED4C0A08ED4C0A08ED4C0A08ED4C0A0823
:1001B000ED4C0A08ED4C0A08ED4C0A08891B0408AE
:1001C000851B0408ED4C0A08ED4C0A08ED4C0A08A2
:1001D000ED4C0A08716C0908ED4C0A08ED4C0A0850
:1001E000ED4C0A08ED4C0A08ED4C0A08ED4C0A08E3
:1001F000ED4C0A08ED4C0A08ED4C0A08ED4C0A08D3
:10020000ED4C0A08ED4C0A08ED4C0A08ED4C0A08C2
:10021000C9450408D9450408E9450408ED4C0A0815
:10022000ED4C0A08ED4C0A08ED4C0A0800000000ED
:10023000ED4C0A08ED4C0A0800000000ED4C0A08DD
:10024000ED4C0A08ED4C0A08ED4C0A08ED4C0A0882
:10025000ED4C0A08ED4C0A08ED4C0A08ED4C0A0872
:10026000ED4C0A08ED4C0A08ED4C0A08ED4C0A0862
:10027000ED4C0A08ED4C0A08614600000000000041
:10028000ED4C0A0800000000ED4C0A0800000000D8
:0802900000000000ED4C0A081B
:020000040804EE
:10000000114A037A0168D35C10B4CC58CA1824F0A2
:100010000104CC501368DB07FCD4037D1F2B09D9E6
:10002000203B20225DF8044B02FA03F343F018034F
:10003000CB60704720225DF8044B02FA03F343F0D3
:1000400018038B60704700BFE8150B084368426DCA
:1000500030B49A61EFF31182502383F31288416820
:10006000D2B2856C0B68046D23EA050323430B6051
:1000700082F31188436981681A68096822F00102D5
:10008000D0E908541A60826A1D605C615A60D0E948
:100090000B429C60DA600023B0F86C2030BCCA626E
:1000A00003777047002A4FEA014C034630B508BF7A
:1000B000E64600F1C00514BF8E468C460024196840
:1000C0000C3353F8042C43F8084C41EA0C0142EA83
:1000D0000E02AB4243F80C1C43F8042CEFD1D0F8CD
:1000E000C03043EA0E03C0E93144C0F8C03030BD2F
:1000F00010B40C4C6368002B11DD002004F1080CD7
:100100000146DCF8AC3003F1C00259600C33934275
:10011000FBD1013063680CF5867C8342F1DC5DF82D
:10012000044B704704000020F0B5404C04EB401332
:1001300093F8543403B9F0BD3D4B42011D7893F858
:1001400001C065450CD00CEB4C0E03EBCE0E9EF8B7
:1001500004604FEA4C0E771E012F5AD9032E52D05D
:100160002244A2F83814EFF31181902383F312880C
:1001700092F83A34C9B2B2F8380443EA4003002096
:100180009BB282F83A0481F311881909207881EA38
:1001900013215940D8B1C9431B01D2F8505401244E
:1001A000D2F83C049BB201F00F01D5F8AC2084409A
:1001B0000B4302F1C000590013F4004F8BB202D17F
:1001C0005168214351600C329042F4D1F0BDD2F815
:1001D0003C041B01D2F8502401F00F0110309BB2F7
:1001E0000124D2F8AC200B43844002F1C000590036
:1001F00013F4004F8BB202D15168214351600C328D
:100200009042F4D1F0BD0CF1010606F00306AE42B7
:10021000A6D0E64403EBCE030344597C00299FD0CB
:10022000A318012083F83A049AE700BF04000020D5
:10023000401A0024704700BF024B03EB401393F8B1
:100240005504704704000020426A806A131A58421D
:100250005841704790F84F3830B53BB990F84D1879
:10026000012490F84E38DAB2914200D830BD04FA39
:1002700003F2B0F8565801332A43A0F85628F2E7A3
:100280000379024613F0010005D0D369D068116AE2
:1002900001385B1A1840704710B503790446DB0734
:1002A00001D4002010BDFFF7EBFF0028F9D0236A2E
:1002B0006269D05C236AE268C0B20133B3FBF2F139
:1002C00002FB11332362EDE703799B070AD5436AEA
:1002D0008269D154436A02690133B3FBF2F102FB34
:1002E00011334362704770470171704703790246CA
:1002F00013F0020007D0536A1069916A01385B1A43
:100300000340DBB2C01A70470C4B4FF0E02C10B426
:100310005A6EDCF81800596E8A42F9D1996E8842FB
:10032000F6D8DC6E4FF47A7101FB04F31B1AB3FBB1
:10033000F4F35DF8044B01FB02307047401A0024CF
:100340002DE9F04F00EB400ADFF8D4B004464FEA45
:1003500040090BEBCA0A87B0DAF870502F6DF80726
:100360000ED43B0709D5A14408230BEBC90B2B6521
:10037000DBF880300133CBF8803007B0BDE8F08F78
:1003800001232B65D5F8A4305906EAD0234E264424
:10039000CDE9024736024F46D5F8A430C3F305290C
:1003A00006EB09134FEA091290595A6810F0804879
:1003B0009968C2F30342D3F80CE014BF20F0604008
:1003C000C0F38A40082A134628BF08239AB10024A4
:1003D0000DF10F0C0195224602F00302032C8CBF95
:1003E00075460D460134D200D540E2B293420CF876
:1003F000015FF1D8019DDAF87C40C5F8A8902CB1D6
:10040000B8F1000104AA18BF0121A047D5F8A43013
:100410005A06C1D1B946029C039FA2E7AC00400036
:10042000401A00242DE9F04F4C484FF0010A4C4986
:100430004FF002094B4B4FF00408082710262025E7
:1004400040244FF0800EDFF820C130F8022F12F068
:10045000010F03D01960083323F804AC12F0020F27
:1004600003D01960083323F8049C12F0040F03D062
:100470001960083323F8048C12F0080F03D01960B8
:10048000083323F8047C12F0100F03D019600833EE
:1004900023F8046C12F0200F03D01960083323F8FE
:1004A000045C12F0400F03D01960083323F8044CA9
:1004B00012F0800F03D01960083323F804EC12F413
:1004C000807F05D04FF4807B1960083323F804BC8B
:1004D00012F4007F05D04FF4007B1960083323F835
:1004E00004BC12F4806F05D04FF4806B19600833A0
:1004F00023F804BC12F4006F05D04FF4006B1960B0
:10050000083323F804BC12F4805F05D04FF4805BFD
:100510001960083323F804BC12F4005F05D04FF4CF
:10052000005B1960083323F804BC12F4804F05D037
:100530004FF4804B1960083323F804BCD20B05D06C
:100540004FF400421960083323F8042C01F5806150
:1005500061457FF47AAFBDE8F08F00BF167F0A08CF
:1005600000000258F81A00240024025810B58446EE
:100570004FEA810E102312F4004F4FEA420214BFDB
:100580000E240724013B92B2CCF80040F444F2D18F
:1005900000EB81128C010351122042F8213010BD72
:1005A00010B584464FEA810E0424130B013C4FEA38
:1005B000021203EB430392B203F11803CCF80030AC
:1005C000F444F2D100EB01130A018450062043F8F1
:1005D000214010BD704700BF704700BF00EB4000D6
:1005E000024B03EBC00393F8490570470400002059
:1005F000064B93F8F825824206D900EB400003EB46
:10060000C003D3F84C057047002070470400002059
:100610001D4B93F8FC25AAB3D3F8381509B1002077
:100620000860012A2ED0D3F8501509B100200860C7
:10063000022A27D0D3F8681509B100200860032AE0
:1006400020D0D3F8801509B100200860042A19D001
:10065000D3F8981509B100200860052A12D0D3F804
:10066000B01509B100200860062A0BD0D3F8C815D0
:1006700009B100200860072A04D0D3F8E0350BB197
:1006800000221A60704700BF040000201D4B93F841
:10069000FC25AAB3D3F8381509B100200860012A57
:1006A0002ED0D3F8501509B100200860022A27D0B7
:1006B000D3F8681509B100200860032A20D0D3F8C8
:1006C000801509B100200860042A19D0D3F89815C4
:1006D00009B100200860052A12D0D3F8B01509B17D
:1006E00000200860062A0BD0D3F8C81509B10020F5
:1006F0000860072A04D0D3F8E0350BB100221A6055
:10070000704700BF04000020C44B1B78002B40F052
:100710004F81C34B93F8FC25002A00F0498193F8E0
:10072000481530B500294ED1D3F838150020012ADC
:10073000086047D993F86015002966D1D3F85015A1
:100740000020022A08603DD993F87815002940F06E
:10075000CB80D3F868150020032A086032D993F8BB
:100760009015002940F0E280D3F880150020042A7B
:10077000086027D993F8A815002940F0F880D3F82D
:1007800098150020052A08601CD993F8C015002987
:1007900040F00F81D3F8B0150020062A086011D967
:1007A00093F8D815002959D1D3F8C8150020072A85
:1007B000086007D993F8F025002A73D1D3F8E03503
:1007C00000221A6030BDD3F83C25910AA1F58011B2
:1007D000522940F20F814FF0FE0CEFF311815020AF
:1007E00080F312888F4C4FF02C0E556AC9B25069B5
:1007F0000EFB0C4C013540F00100CCF86055506107
:1008000081F3118893F8FC258EE7D3F85425910ADB
:10081000A1F58011522940F2F2804FF0FE0CEFF367
:100820001181502080F312884FF02C0E556A7D4CB8
:10083000C9B2506901350EFB0C4440F00100C4F808
:100840006055506181F3118893F8FC250020D3F89E
:100850005015022A08603FF677AFB3E7D3F8CC25EE
:10086000910AA1F58011522900F2EA806E480144F4
:1008700091F814C0EFF31181502080F312884FF0EB
:100880002C0E556A674CC9B2506901350EFB0C44F9
:1008900040F00100C4F86055506181F3118893F86D
:1008A000FC2581E7D3F8E425910AA1F580115229AE
:1008B00000F2C9805C48014491F814C0EFF3118143
:1008C000502080F312884FF02C0E556A554CC9B257
:1008D000506901350EFB0C4440F00100C4F860552E
:1008E000506181F3118869E7D3F86C25910AA1F56D
:1008F0008011522940F288804FF0FE0EEFF31181F3
:10090000502080F312884FF02C0C556A454CC9B228
:10091000506901350CFB0E4440F00100C4F86055ED
:10092000506181F3118893F8FC2512E7D3F88425F0
:10093000910AA1F5801152296BD94FF0FE0CEFF30B
:100940001181502080F312884FF02C0E556A354CDF
:10095000C9B2506901350EFB0C4440F00100C4F8E7
:100960006055506181F3118893F8FC25FCE6D3F8BB
:100970009C25910AA1F58011522957D94FF0FE0C00
:10098000EFF31181502080F312884FF02C0E556A3E
:10099000244CC9B2506901350EFB0C4440F00100F3
:1009A000C4F86055506181F3118893F8FC25E6E6A0
:1009B0007047D3F8B425910AA1F5801152293AD98C
:1009C0004FF0FE0CEFF31181502080F312884FF0AE
:1009D0002C0E556A134CC9B2506901350EFB0C44FC
:1009E00040F00100C4F86055506181F3118893F81C
:1009F000FC25CFE60C48014491F814C0EDE60A4806
:100A0000014491F814C00AE70748014491F814E042
:100A100074E70548014491F814C090E700000024F1
:100A200004000020401A0024187F0A0807480144E7
:100A300091F814C0A4E70548014491F814C0C1E737
:100A40004FF0FE0C16E74FF0FE0C37E7187F0A0850
:100A500000EE100AB8EE400A704700BFBCEEC00AB4
:100A600010EE103A98B2704707280AD84FF4B472C3
:100A7000054B02FB0033B3F80006B0FA80F04009E2
:100A800070470020704700BF04000020072807D8E7
:100A9000044B4FF4B471012201FB003383F80226AA
:100AA000704700BF04000020072808D8044B03EB60
:100AB000401393F8542412B1012283F83A2470476A
:100AC00004000020072808D8054B03EB4013B3F8B7
:100AD0003804B0FA80F0400970470020704700BF2A
:100AE00004000020054B93F8F825824204D903EB5B
:100AF0004013D3F8440470470020704704000020DE
:100B000030B5124D95F8CC47ECB105F5FA654FF0CC
:100B1000000EAC4605E00EF1010E0CF1100CA645DE
:100B20000FD0BCF808009042F5D19CF80A0098421A
:100B3000F1D105EB0E150120D5E90023C1E9002311
:100B400030BD002030BD204630BD00BF401A00241B
:100B500070B5104E96F8CC47D4B1B1F816E006F552
:100B6000FA63002203E001321033A24210D0B3F83E
:100B700008C0F445F7D19D7A91F818C06545F2D1C7
:100B800006EB0216D6F8DC3713B1BDE87040184703
:100B900070BD00BF401A002470B5154C94F850C8C1
:100BA00094F851680CF1010505F01F05AE421DD007
:100BB0005FFA8CFC082B9E4604EB0C1628BF4FF006
:100BC000080EC6F8540886F8611886F860E85BB12C
:100BD000013A06F657010023013312F8010FDBB288
:100BE00001F8010F9E45F7D884F8505870BD00BF3A
:100BF000401A00240E2809D8DFE800F01515151555
:100C000015151515150A0C0E10121400402070470A
:100C10000C20704710207047142070471820704730
:100C200020207047302070472DE9F043456A35B9E0
:100C30004162BDE8F083CEF800100B60F9E74E6822
:100C4000AE462B4626F0604CC6F38A47C6F3807842
:100C500017EA260738BF67465C6894EA060F24F057
:100C600060420CD5002C1EDA920CBA4201D0BA4276
:100C70000FD99D42DFD10D60DAE71346ECE79445CA
:100C800005D104F08049C4F38074444507D19445EC
:100C9000EFD31A689E46002AEFD11960C9E7B9F16F
:100CA000000FF6D0E5E7BA42F3D0E0E72DE9F041D6
:100CB0004FF425728EB00021734866F0B5FD734B7A
:100CC000734D4FF00008D3F8F02040F27D27A5F1D6
:100CD000680605F6F41442F00102C3F8F020D3F8D8
:100CE000F02002F001020092009AD3F8E82042F0CE
:100CF0000102C3F8E820D3F8E82002F001020192D3
:100D0000019AD3F8E82042F00202C3F8E820D3F8B1
:100D1000E82002F002020292029AD3F8E82042F0A0
:100D20000402C3F8E820D3F8E82002F0040203929A
:100D3000039AD3F8E82042F00802C3F8E820D3F879
:100D4000E82002F008020492049AD3F8E82042F066
:100D50001002C3F8E820D3F8E82002F01002059250
:100D6000059AD3F8E82042F02002C3F8E820D3F82F
:100D7000E82002F020020692069AD3F8F02042F012
:100D80000202C3F8F020D3F8F02002F0020207922A
:100D9000079AD3F8E82042F04002C3F8E820D3F8DD
:100DA000E82002F040020892089AD3F8E82042F0C6
:100DB0008002C3F8E820D3F8E82002F0800209920C
:100DC000099AD3F8E82042F48072C3F8E820D3F8F7
:100DD000E82002F480720A920A9AD3F8F02042F4D2
:100DE0008032C3F8F020D3F8F02002F480320B9266
:100DF0000B9AD3F8F02042F40032C3F8F020D3F875
:100E0000F02002F400320C920C9AD3F8F02042F455
:100E10008022C3F8F020D3F8F03003F480230D9340
:100E20000D9B55F82810002354F83320914226D00A
:100E300001330E2BF8D1002008F107085BF032FFD8
:100E4000B845EED14FF0000840F27D2755F8281044
:100E5000002354F8332091420CD001330E2BF8D1EB
:100E6000002008F107085BF01DFFB845EED10EB079
:100E7000BDE8F08106EBC303B3F8600AF1E706EBC7
:100E8000C303B3F8600AD7E7781F00240044025870
:100E9000807F0A0810B5044665F088F901462046AF
:100EA00089B2BDE81040FFF73FB900BF38B50B4D20
:100EB00000EB400005F5A763C40003EBC003254425
:100EC00093ED027AD3ED037AE7EE007AB0EE670A8B
:100ED00065F06CF9D5F83835186038BD040000208D
:100EE00002692DE9F843C36812EA030828D00546D1
:100EF0000E464FF00047B8FA88F327FA03F21B3B7F
:100F0000D24308EA02082A61042B16D8DFE803F06E
:100F10003B30251A0300B36A002B3FD003F1FF39A1
:100F200000231FFA89F9B362746A34B1236820463A
:100F3000494698476468002CF8D1B8F1000FDAD11F
:100F4000BDE8F88370680028F7D0696B036889B240
:100F50009847B8F1000FCED1F2E7B0680028ECD086
:100F6000A96B036889B29847B8F1000FC3D1E7E7CE
:100F7000F0680028E1D0E96B036889B29847B8F1BE
:100F8000000FB8D1DCE730690028D6D0296C03689F
:100F900089B29847B8F1000FADD1D1E7EB6A1FFADB
:100FA00083F9C1E72DE9F043144C83B0DFF850908A
:100FB000DFF8508004F5906602E00834B44219D09E
:100FC00094F90650002DF8D12768083407EB080380
:100FD0009B0A09EB4303B3F8CC0A5BF063FE34F8D9
:100FE000041C01232A463846CDE9005560F0D4F9A7
:100FF000B442E5D103B0BDE8F08300BFF81A002485
:10100000187F0A080000FEA710B590F83DE0BEF179
:10101000020F76D0144690F83D208446012A02D172
:10102000022280F83D200C2921D8DFE801F00720BA
:101030002020222020203A2020205200DCF824000A
:101040003449DCF80020C1633349C16490F834109E
:1010500001290CD0012180F8341090F835100129B5
:1010600052D000224FF4006380F834204365002002
:1010700010BDDCF828002749DCF80020C1632649B0
:10108000C16490F834100129F1D0012180F83410A6
:1010900090F835100129E4D13832214653F0DCFCB8
:1010A000E5E7DCF82C001B49DCF80020C1631A4995
:1010B000C16490F834100129D9D0012180F834108E
:1010C00090F835100129CCD13C32214653F0C4FCB4
:1010D000CDE7DCF830000F49DCF80020C1630E4991
:1010E000C16490F834100129C1D0012180F8341076
:1010F00090F835100129B4D14032214653F0ACFCB0
:10110000B5E75FFA8EF010BD3432214653F0A4FCEF
:10111000ADE700BFFD160908A5160908F8B5A0F649
:1011200068042379DB0725D5657994F84C3805F0F8
:1011300001073D46FBB1D4F848341A68D36A5B080E
:10114000536294F8503823B1B4F85A380133A4F8F4
:101150005A3885F00101606C5AF0F8FC012384F8DC
:101160004F38002384F84D3884F84E38A4F85638A8
:1011700084F84C38F8BD94F84F68012E03D194F8E8
:101180004D3884F84E382046FFF764F84EB90123F5
:1011900085EA030184F84F38606CBDE8F8405AF0E6
:1011A000D5BC0023394684F84F38F5E738B5A0F6AA
:1011B00068040022344D606C03685A62A1F129036F
:1011C000302B31D895F8F33A95F8F41A0133DBB2A5
:1011D000012B85F8F33A09D9B4F8563885F8F32A83
:1011E0005B08A4F856384B1C85F8F43A95F8F42AB5
:1011F0000023082AA4F8583815D185F8F43AB5F830
:10120000F63A01339BB2032BA5F8F63A08D92379B5
:10121000DB0705D5E36A94F8560843B3216B98477A
:101220000023A4F8563838BD5B396C290CD8B4F8C3
:10123000563885F8F32A5B0843F08003A4F8563843
:1012400095F8F43A0133CFE794F85138002BCDD11B
:10125000012185F8F33AA5F8F63A802384F851186D
:10126000A4F8563885F8F41A5AF070FCBEE7E36922
:101270006269D054E369E2680133B3FBF2F102FB27
:101280001133E361CCE700BF401A002438B554F0B5
:10129000F9FA0D490D4CD1F8FC20A4FB00400C4D8F
:1012A00042F080720B4B800CC1F8FC204FF0604282
:1012B0000949E866C2F8B01F00225A601A6842F075
:1012C00001021A6038BD00BF00ED00E083DE1B4361
:1012D000401A0024001000E055CEACC51B481C4A43
:1012E000C1681C4B10B44FF6FF0485B021401A4C66
:1012F0000A43C260D3F8D010D3F8DC20C4F8F81A3F
:1013000042F00052C3F8DC20D3F8DC2002F0005297
:101310000192019AD3F8DC2042F08042C3F8DC202D
:10132000D3F8DC2002F080420292029AD3F8DC204B
:1013300042F00042C3F8DC20D3F8DC3003F0004375
:101340000393039B05B05DF8044B9FE700ED00E0BD
:101350000005FA0500440258401A00242DE9F04F18
:10136000AC4C83B0AC4D81464F1E102659F012FF95
:101370004FF4FA784FF0E0214FF47A7C4FF0010EF1
:101380006B68C3F30803002B40F06681EFF3118311
:10139000002B40F06181636E8869626E9342FAD1DE
:1013A000A26E9042F7D8E26E0CFB02FAAAEB000A9A
:1013B000BAFBF2FA0CFB03AA6B68C3F30803002B19
:1013C00040F02C81EFF31183002B40F02781636EF6
:1013D0008869626E9342FAD1A26E9042F7D8D4F82F
:1013E0006CB00CFB0BF2121AB2FBFBF20CFB0323EA
:1013F000A3EB0A03B3F57A7FDED3B8F10108BFD1BE
:10140000D4F8081B94F800EBD4F8042B51B18EF0FB
:101410000203B1F804C00868C3F340031B010CFACF
:1014200003F3836132B10EF0010390881B019840F1
:101430001368986148464FF0010C4FF0E02351B11A
:10144000D1F800E08988DEF8148011EA080F18BF8F
:101450000904CEF8181042B111689288D1F814E04E
:1014600012EA0E0F18BF12048A61B4F8102B002A7A
:1014700040F06C8194F8181BD4F8142B002940F02C
:101480005E812AB19188D2F800E00904CEF81810E4
:10149000FA21BA464FF47A7E01900F466A68C2F389
:1014A0000802002A40F01181EFF31182002A40F077
:1014B0000C81626E9869616E8A42FAD1A16E88428F
:1014C000F7D8E16E0EFB01FBABEB0008BB46B8FBA7
:1014D000F1F80EFB02886A68C2F30802002A40F0A5
:1014E000E180EFF31182002A40F0DC80616E9F6999
:1014F000626E9142FAD1A26E9742F7D8E06E0EFB6F
:1015000000F2D21BB2FBF0F20EFB0122A2EB0802AA
:10151000B2F57A7FDFD35F46013FBFD1D4F8082B05
:101520005746019842B111689288D1F814E012EA46
:101530000E0F18BF12048A61D4F8042B42B111684F
:101540009288D1F814E012EA0E0F18BF12048A61D3
:10155000B4F8102B002A40F0158194F8181BD4F829
:10156000142B002940F0068122B1D2F800E09188C6
:10157000CEF81810FA21BA464FF47A7E01900F4641
:101580006A68C2F30802002A40F0BC80EFF31182BF
:10159000002A40F0B780626E9869616E8A42FAD183
:1015A000A16E8842F7D8E16E0EFB01FBABEB0008A1
:1015B000BB46B8FBF1F80EFB02886A68C2F308026A
:1015C000002A5CD1EFF31182002A58D1616E9F6925
:1015D000626E9142FAD1A26E9742F7D8E06E0EFB8E
:1015E00000F2D21BB2FBF0F20EFB0122A2EB0802CA
:1015F000B2F57A7FE1D35F46013FC1D101985746EA
:101600000138C0B2FF2800F0CE80D4F8081BD4F80F
:10161000042B14E7401A002400ED00E0EFF31183DF
:1016200086F31288D1F818B00A69D00303D5C4F83C
:10163000FCEAD1F818B0606EDBB2D4F8FC2A83F370
:1016400011880244E06E0CFB00F3A3EB0B03B3FB29
:10165000F0F30CFB0233CBE6EFF3118286F3128832
:1016600088690B69DB0302D5C4F8FCEA8869636EFC
:10167000D2B2D4F8FCAA82F31188534493E6EFF374
:10168000118286F312889F691969C90302D5C4F8CB
:10169000FCCA9F69606ED2B2D4F8FC1A82F311883A
:1016A00001449BE7EFF3118286F312889F69196961
:1016B000C90302D5C4F8FCCA9F69606ED2B2D4F8DF
:1016C000FC1A82F31188014418E7EFF3118186F3C5
:1016D000128898691A69D20302D5C4F8FCCA9869BD
:1016E000626EC9B2D4F8FC8A81F31188E16E42447B
:1016F000BB460EFB01F8A8EB0008B8FBF1F80EFBA7
:101700000288E8E6EFF3118186F3128898691A6976
:10171000D20302D5C4F8FCCA9869626EC9B2D4F883
:10172000FC8A81F31188E16E4244BB460EFB01F84E
:10173000A8EB0008B8FBF1F80EFB02883DE7002A91
:101740003FF4A6AED2F800E091889FE6D4F8302BA3
:10175000002A3FF49DAEB4F8342B002A3FF498AE33
:101760004D49B1FBF2F1D4F81C2B4910116084F8FB
:101770002DCB8DE6002A3FF4FDAE9188D2F800E033
:101780000904F5E6D4F8302B002A3FF4F3AEB4F8A0
:10179000342B002A3FF4EEAE0021D4F81C2B11604C
:1017A00084F82D1BE6E64FF47A7E4FF0E0214FF0EF
:1017B0000108F4466B68C3F30803002B58D1EFF31C
:1017C0001183002B54D1636E8869626E9342FAD103
:1017D000A26E9042F7D8E26E0CFB02FAAAEB000A66
:1017E000BAFBF2FA0CFB03AA6B68C3F308030BBB4A
:1017F000EFF31183F3B9636E8869626E9342FAD195
:10180000A26E9042F7D8D4F86CB00CFB0BF2121A0F
:10181000B2FBFBF20CFB0323A3EB0A03B3F57A7FC5
:10182000E2D3BEF1010EC5D1013FBFF49FAD03B0BD
:10183000BDE8F08FEFF3118386F31288D1F818B06A
:101840000A69D20303D5C4F8FC8AD1F818B0606ED7
:10185000DBB2D4F8FC2A83F311880244E06E0CFB5F
:1018600000F3A3EB0B03B3FBF0F30CFB0233D3E762
:10187000EFF3118286F3128888690B69DB0302D5C6
:10188000C4F8FC8A8869636ED2B2D4F8FCAA82F3E9
:10189000118853449FE700BF40420F0070B50546D2
:1018A0000A26084C013E00D170BD94F9000018F0E2
:1018B000A3FB031E04DB6178EA185172A278EA5494
:1018C0000434EFE7F6890A0830B40D4CBFF34F8FAC
:1018D0000C4BC3F85C42BFF34F8FBFF36F8F0A4BC3
:1018E0000A4D03F13000DA792AB1597934F8112020
:1018F00092B225F811200C338342F4D130BC7047EA
:1019000000CB002400ED00E078250024C0CA0024AC
:1019100000207047704700BF036823F00203036094
:10192000036823F004030360036823F040030360AB
:10193000036823F020030360036823F010030360AF
:10194000036823F08003036083699B0603D5C369A2
:1019500043F02003C36183699A0701D500238362A2
:101960008369DB0701D4012383610023064A4FF01A
:10197000010C436081F800C04B70B2F88C3B6344AB
:101980009BB2A2F88C3B7047401A00242C2110B463
:1019900000FB01F1504C6318D3F8903B5B681A6868
:1019A000D2060DD59A69D2060AD5DA6921441846BD
:1019B0005DF8044B42F0100201F6A831DA61ABE7A2
:1019C0001A6891071CD59A69920719D52C2202FB37
:1019D000004292F8AD1B81B192F8AC1B69B1D2F80C
:1019E000B01B481CC2F8B00B0978C9B2996292F8D2
:1019F000AC3B013BDBB282F8AC3B5DF8044B70477B
:101A00001A68510722D41A6851063CD59A695206C1
:101A100039D52C2202FB004292F8AE1B0029ECD0F3
:101A200092F8AA4B2D4992F8AC0B5A680A402C49FF
:101A3000224342EA0042114359601A6822F002022E
:101A40001A601A6842F004021A60D6E79A695207CF
:101A5000D9D52C2202FB004292F8AE1B0029CCD033
:101A600092F8AC1B0029C8D05B6AD2F8B41BDBB279
:101A7000481CC2F8B40B0B7092F8AC3B013BDBB2D4
:101A800082F8AC3BB9E71A689106B6D59A69920616
:101A9000B3D5D9692C2241F0200102FB004200207D
:101AA000D961196821F002011960196821F0040157
:101AB0001960196821F040011960196821F02001AE
:101AC0001960196821F010011960196821F080016E
:101AD000196082F8A90B90E7401A0024008000FCEE
:101AE000002400822C23014610B41E4C03FB00434B
:101AF000D3F8902B5068026812062AD58269D20565
:101B000006D5C26942F48072C261012283F8A82B13
:101B100083699A0509D5C2692C2342F4007203FB3C
:101B20000143C261012283F8A82B83695B0509D5B3
:101B3000C2692C2342F4806203FB0143C26101228B
:101B400083F8A82B2C2303FB01F1631893F8A83B1F
:101B500013B95DF8044B7047034B5DF8044B19440F
:101B6000DAE600BF401A0024E82500240020B9E787
:101B700000200BE70120B5E7012007E70220B1E7CD
:101B8000022003E70320ADE70320FFE62DE9F84339
:101B90000568D5E904366C68F0611A7DD3F80080D9
:101BA0001F2A4BD9203A2021376801FA02F242F06D
:101BB0001802C8F80C20327D1F2A4AD9203A202169
:101BC00001FA02F242F01802FA60726800205968C5
:101BD000086010604046116841F01001116093F8F0
:101BE0000890AA6949465EF015FD367AEA693846DA
:101BF00031465EF00FFD2B6A9A6863686FF30F033E
:101C000013436360164B13F809009A5D58F80030CF
:101C100043F0010348F80030BB5843F00103BB50C8
:101C2000A36843F44043A360236843F001032360A7
:101C3000236843F400732360BDE8F88320213768EC
:101C400001FA02F242F01802C8F80820327D1F2A79
:101C5000B4D8202101FA02F242F01802BA60B4E7C7
:101C6000E8150B08D3B20F2B1FD8114B00B503F1A9
:101C70007E0E02E00333734514D093F800C0844510
:101C8000F8D193F801C08C45F4D102EB4202094827
:101C9000997800EB82030430D96000EB820019715F
:101CA0005DF804FB00205DF804FB0020704700BFD6
:101CB0001C8A0A080000002410B40C4C002304F510
:101CC000446C01E0152B0CD003EB430201331CF8EC
:101CD00002108142F6D1144494F9420C5DF8044B91
:101CE00070474FF0FF305DF8044B7047401A0024F6
:101CF00030B5114D002305F6843C02E001331A2B68
:101D000018D05CF833408442F8D10CEBC30EDC00F1
:101D10009EF804E08E45F1D102EB4202074B2544C8
:101D200003EB8201043395F8894B03EB8200CC600E
:101D30000C7130BD002030BD187F0A08000000245F
:101D4000F0B1002310B504460E4894F804E000F505
:101D5000446C01E0152B11D003EB430201331CF856
:101D600002107145F6D183186179206893F9422CED
:101D7000D3B20F2B02D8BDE81040B9E7002010BD48
:101D800000207047401A00244FF02C0C01380C4BF7
:101D900082B00C4A0CFB00330B49D3F8C4308B42A1
:101DA00014BF02230123D2F8D8101943C2F8D81067
:101DB000D2F8D82013400193019B02B0704700BFB6
:101DC000000000240044025800000240F8B5013829
:101DD0001E46134C2C2315460F4603FB0044114BA3
:101DE000D4F8C400984214BFA120A0205AF05AFF92
:101DF000C5F30112A909B4F9DC00C4F8D470C4F821
:101E0000E06051F00BFEB4F9DC30002B07DB03F08F
:101E10001F0001225B090449824041F82320F8BDDC
:101E2000000000240000024000E100E02DE9F04F36
:101E3000012385B0DFF804A30026BB4A99460AF1C6
:101E4000F00BBA4FA2F1040801960BE0019B09F1D7
:101E500001090AF1280A0BF1050B0133062B019346
:101E600000F0F1809AF80030022BEFD19BF90320AB
:101E7000511C00F0EB80D2B2964602EB4204AA4B12
:101E80009DF8041003EB84040F2A5ED8A84802E0F2
:101E90000330B84259D00378002BF9D145788D42F0
:101EA000F6D18678D8F8C8506068A660A842267037
:101EB00000F04681D8F8F450A84200F06081D8F8CC
:101EC0002051A84200F06581D8F84C51A84200F09A
:101ED0006581D8F87851A84200F07181D8F8A451F2
:101EE000A84200F08981D8F8D051A84200F07E8144
:101EF000D8F8FC51A84200F08A81D8F82852A842AC
:101F000000F07F81D8F85432984200F09981D8F8D7
:101F10008032984200F08D81D8F8AC32984200F0BF
:101F2000B481D8F8D832984200F0A881D8F80433A8
:101F3000984200F0B881D8F83033984200F0BA8166
:101F4000D8F85C33984200F0A78101320C34D2B249
:101F5000724599D9002303939BF90420531C79D02F
:101F6000D2B2964602EB42046F4B9DF8041003EB8D
:101F700084040F2A5DD86E4802E00330B84258D07E
:101F80000378012BF9D145788D42F6D18578D8F8C0
:101F9000C8606068A560B04225705FD0D8F8F46072
:101FA000B04200F0F180D8F82061B04200F0FB8030
:101FB000D8F84C61864200F0FC80D8F87861B042D5
:101FC00000F00281D8F8A461B04200F00981D8F88D
:101FD000D061B04200F0FE80D8F8FC61B04200F061
:101FE0002281D8F82862B04200F01781D8F85462F4
:101FF000B04200F03281D8F88032984200F0278158
:10200000D8F8AC32984200F03381D8F8D8329842F0
:1020100000F02881D8F80433984200F05E81D8F8A7
:102020003033984200F05381D8F85C33984200F086
:10203000488101320C34D2B296459AD20022002354
:10204000CAE9042302E705B0BDE8F08F4FF00F0E98
:10205000002212E74FF00F0E002283E74FF0000C32
:1020600063466046CDF808C02C2606FB008090F938
:10207000E460002EDDD1324680F8CC3066462D4B30
:10208000029CAC46334480F8E5900134C0F8D0C0DF
:10209000CAF814301323154680F8E4302046FFF7C1
:1020A00073FE039B002BC9D0DAF814603046FDF7AD
:1020B000A7FFDAF81000FDF7A3FFDAF81830C168BF
:1020C000DAF80420596240215D60996002F1200134
:1020D0009D631960C3E90355C3E90555C3E9075575
:1020E000C3E90A55C3E90C55A6B1DAF81C30303201
:1020F000F1681D625962C3E900254FF48032C3E9DB
:102100000255C3E90455C3E90655C3E90B55C3E9B4
:102110000D559A620023204607491A46FFF756FEDE
:1021200001238AF80C3091E6040000249A8A0A08F8
:102130001C8A0A08C4000024390A0000C0260024B2
:102140009C4602932C2000FB0C8595F9E4000028A6
:102150007FF4FBAE029A604685F8CC30624B0130CA
:10216000C5F8D060134485F8E590CAF81030142300
:1021700085F8E430FFF708FE01230393ECE6012322
:102180002C209C460290DDE74FF02C0C1846029361
:102190006AE7022358209C460290D3E70323842059
:1021A0009C460290CEE702234FF0580C184602934B
:1021B0005AE703234FF0840C1846029354E7042394
:1021C000B0209C460290BDE704234FF0B00C1846A7
:1021D000029349E706234FF4847C1846029343E7B1
:1021E00005234FF0DC0C184602933DE706234FF41D
:1021F00084709C460290A5E70523DC209C46029053
:10220000A0E74FF4B0704FF0080C02909AE7072354
:102210004FF49A709C46029094E708204FF4B07CEB
:102220000023029020E707234FF49A7C184602937C
:102230001AE74FF4DC7002234FF00A0C029081E79A
:102240004FF4C6734FF0090C029301237AE70A207A
:1022500002234FF4DC7C029006E709204FF4C67C91
:10226000029001E70C204FF4047C04230290FBE66B
:102270000B204FF4F27C03230290F5E64FF4047335
:102280004FF00C0C029304235CE74FF4F2734FF011
:102290000B0C0293032355E74FF425734FF00F0CFB
:1022A000029307234EE74FF40F734FF00D0C029388
:1022B000052347E74FF41A734FF00E0C02930623E1
:1022C00040E70F204FF4257C07230290CCE60E2038
:1022D0004FF41A7C06230290C6E60D204FF40F7CC3
:1022E00005230290C0E600BFC4000024234B5B68B6
:1022F000C3F3080310B4DBB9EFF31183C3B9204B68
:102300004FF0E02C5A6EDCF81800596E8A42F9D171
:10231000996E8842F6D8DC6E4FF47A7101FB04F3B3
:10232000181AB0FBF4F05DF8044B01FB0200704793
:10233000EFF31181102383F312884FF0E0229469A8
:10234000136913F4803F0E4B03D00120C3F8FC0A3D
:102350009469586EC9B2D3F8FC2A81F31188D96EFA
:102360004FF47A73024403FB01F0001B5DF8044B49
:10237000B0FBF1F003FB0200704700BF00ED00E08E
:10238000401A0024BE4803780BB901207047436807
:102390002DE9F04F002BDFF8109387B0D9F8646077
:1023A00018DD00F108050024B649D5F8F430BFF374
:1023B0004F8F03F59072C1F85C3220339342FAD10B
:1023C000BFF34F8FBFF36F8F0134436805F58675F8
:1023D0009C42EADB90F8F815AB4A0491A2FB061286
:1023E000AA4BAB4E5209DFF8C4A2A3FB0213DB08D1
:1023F00003EB8303A2EB4303DAB206EB830B06F590
:1024000038730592009300239846049B984500F08A
:102410001481DAF81830DAF80470D3E93D45FFF793
:1024200065FF9C4999F88FED012269180190BEF172
:10243000540F99F88E0D02FA07F204EB410104EBF8
:10244000400301D1A9F8960D994240F26A811F8894
:10245000174200F05F815F88174200F070819F880B
:10246000174200F06E81DF8808331742ECD11C1B45
:1024700099424FEA640440F25481281B452828BF42
:10248000452003EB4000834280F04F8100251F462A
:10249000AC462946CDE9028EB3F800E00EEA020E02
:1024A0008E451CD1B3F802E00EEA020E714540F0F1
:1024B0001A81B3F804E00EEA020E714540F015816E
:1024C000B3F80680083308EA0208414508D198426B
:1024D00009D9B3F800E00EEA020E8E45E2D00233CD
:1024E000984200F2E580BCF1110FDDE9028E40F266
:1024F0001C81DCF1150200F118816749D9F8A00DA3
:10250000D1F884339C4238BFC1F88443019C231A1C
:10251000002B14DB614B03449C4201D92346053355
:10252000C9F8A03DD1F88433052B40F20C81053B5E
:10253000DBB289F88E3D4FF0FF33C1F884333AB1F6
:1025400005FA02F2CCF1140C012505FA0CF515433D
:10255000534BC5F3C43203EB8202D2F8540C05F09E
:102560001F0203EB8202D2F8541CC5F34412C5F3D8
:10257000842503EB820241EA0031D2F8542C03EBAC
:10258000850341EA0211D3F8543C41EA0321454B4B
:1025900081EA1122D3F81C3A82EA1212013302F0C6
:1025A0000F020F2A40F0A380B1F5803F80F09F809A
:1025B000BEF1540F4FEA111147D03A4AB1F5606F9E
:1025C000C2F81C3A4DD0009B998196F85830059876
:1025D000834210D0DBF8082033689B1A336073689D
:1025E000DBF830209B1A73600023CBF80830CBF85F
:1025F000303086F85800336801333360DBF8083038
:102600000133CBF808304FF6FF73994207D1736856
:1026100001337360DBF830300133CBF83030009B8E
:1026200008F101085C360BF15C0B1433B8F1080FAC
:102630000AF1200A00937FF4E8AE0123194A012031
:1026400082F8183B07B0BDE8F08FB9F8902DB1F5CE
:10265000606F02F10102A9F8902D124AC2F81C3AEB
:10266000B1D199F8013003EB430309EBC3034344B1
:102670005B7C0D2BA7D18023009A9377A5E700BF41
:102680000400002000ED00E01F85EB51CDCCCCCC48
:1026900030180020C7FFFF7F0000002420A10700A2
:1026A000187F0A08FC100020401A00243C04002077
:1026B000A3EB070E254F33F8021C4FEA6E0E1140B4
:1026C0000EF1010E87FB0E87A7EBEE774FF0010EA0
:1026D000012FB8BF0127BD40BC44013F0EFA07F7E8
:1026E0003D431F46D8E60433FAE60633F8E6BEF16A
:1026F000540F04D1B9F8902D0132A9F8902D144A45
:102700004FF6FF71C2F81C3AD2F8183A0133C2F8FA
:10271000183A5AE702331C1B99424FEA64043FF609
:10272000ACAE10B1013889F88E0DBEF1540F7FF4B4
:1027300076AFB9F8923D0133A9F8923D6FE70433C3
:1027400095E6063393E60023F3E600BF565555554C
:10275000FC100020264B70B51A785B789A4242D163
:10276000244E7368002B22DD06F108000025224C60
:10277000D0F8AC30BFF34F8F03F1E002C4F86832F9
:1027800020339342FAD1BFF34F8FBFF36F8F33786B
:1027900013B1037F012B20D042690135716800F528
:1027A00086701368A94243F001031360E0DCFFF771
:1027B0009DFD124BD3F81C4B002C0DDD03F532634D
:1027C00003EBC4041968083333F8042CC8689C422E
:1027D00042EA0002CA60F5D170BD002380F8FC30E7
:1027E000FDF734FCD8E760F0C7FE0028B8D170BD13
:1027F000401A00240400002000ED00E0FC1000203E
:10280000F8B5304C94F9D13D94F8D17D002B05DD1D
:1028100094F8D25D013DEDB2022D00D9F8BD002142
:10282000294B2C2204F6A45084F8501883F88853BE
:1028300084F8511884F8CC1764F0F6FF234A04F6A4
:10284000D453C4F8AC2D03F58060214AC4F8C03DD0
:10285000C4F8A82D04F6B45211461A460B60203372
:102860009842F9D100261B4B84F8A47DC3F8B461CB
:102870002023194F1948C4F8B83DA4F8BC6DC4F81A
:10288000B06D61F051FA4822314607F1E40087F853
:10289000DC60C7F8E06064F0C7FF114887F82C617E
:1028A000C7F8306161F040FA18220E4B02FB054474
:1028B000E367FFF71BFD0123C7F8340187F83831C0
:1028C000F8BD00BF401A002400000024510B04088A
:1028D000010B0408402A0024382B0024F08B0A083E
:1028E000008C0A08990B040870B52DED088B8AB08E
:1028F0000D460020002108AB0024252203AE0093E2
:1029000001230594ADF81240ADF81040ADF80E402B
:102910008DF80D408DF80C40CDE90801CDE9060198
:102920008821284661F000F906A9012325222846BE
:102930000091AD2161F0F8F805A901231B2228467A
:102940000091ED2161F0F0F80DF112012346102203
:10295000284600914FF4847161F0E6F804A92346FB
:102960001022284600914FF48C7161F0DDF80DF1D2
:102970000E0123461022284600914FF4947161F015
:10298000D3F80DF10D0123460622284600914FF49D
:102990009C7161F0C9F8234602224FF49F712846CA
:1029A000009661F0C1F8BDF81230E04ADFEDE06A50
:1029B00002EA4332DFEDDF7ADC4907EE102A1A041F
:1029C000BDF81030B4EEE67ADFEDD96A67EE277A0B
:1029D00001EA433102F000421B0407EE101AF1EE47
:1029E00010FA17EE900ADFEDD37AB4EEE67A03F030
:1029F000004367EE277AA8BF40F0FF40CB49F1EED5
:102A000010FA42EA000217EE900ADFEDC96A08EEFA
:102A1000902ABDF80E20A8BF40F0FF40DFEDC57A38
:102A200001EA42310343120407EE101A08EE103A8D
:102A300002F00042B4EEE67A68EE089A67EE277A72
:102A4000F1EE10FAE8EEA89A17EE903ADFEDBA7AB6
:102A5000A8BF43F0FF431343F4EEE79AF0EE69AAF0
:102A600009EE103AF1EE10FAE9EE09AA14DDF0EEE3
:102A7000680AB0EE480A63F021FBDFEDB07A20EE81
:102A800027BAB5EEC0BAF1EE10FA00F12881F2EEE5
:102A9000047A2BEE27AA03E09FEDA9AAB0EE4ABA6A
:102AA000A84CD4F83C310133C4F83C313C2200211D
:102AB00004F1F00064F0B8FEDDE906351A0F4FEAC4
:102AC000E57C42EA05120CF003002CF0030C22F026
:102AD000704123F070420A444FF0CC3102EB156292
:102AE00002449948A0FB02E626F0030E0EEB960E78
:102AF000A2EB0E0262449B1A65EBE27503FB01F147
:102B000000FB0511A3FB0020091802D5013241F199
:102B100000015208DDE9083042EAC1724FEAE07C68
:102B2000C4F8E4201A0F0CF003052CF0030C42EA61
:102B3000001222F0704123F070420A444FF0CC3171
:102B400002EB10622A44804DA5FB02E626F0030E3C
:102B50000EEB960EA2EB0E0262449B1A60EBE27043
:102B600001FB03F205FB0022A3FB0535521902D538
:102B7000013342F10002DFED757A5B080599F4EE4E
:102B8000E78A734843EAC27380FB0150C917F1EE2C
:102B900010FAC1EBA001C4E93A3100F1B780DFEDD2
:102BA0006D7AF4EEE78AF1EE10FA00F39580DFED2E
:102BB0006A7A68EEA78AFDEEE88A18EE903A1BB2B0
:102BC000DFED627AA4F80831B4EEE78AF1EE10FA8C
:102BD00000F1A080DFED5F7AB4EEE78AF1EE10FA43
:102BE00000F39A80DFED5C7A28EE278ABDEEC88A72
:102BF00018EE103A1BB2DFED557AA4F80A31B4EEA4
:102C0000E79AF1EE10FA00F18380DFED527AB4EE2C
:102C1000E79AF1EE10FA00F38580DFED4F7A29EEA6
:102C2000279ABDEEC99A19EE103A1BB2DFED4B7A26
:102C3000A4F80C31F4EEE79AF1EE10FA63DCB1EE91
:102C4000E97ADFED457A27EE277ABCEEC77A17EEF0
:102C5000103A9BB2DFED417AA4F81031F4EEE7AA06
:102C6000F1EE10FA44DCB1EEEA7ADFED3B7AB5EE34
:102C7000C0AAF1EE10FA27EE277ABCEEC77A17EE5B
:102C8000103A9BB2A4F80E313BD4DFED357AB4EEA6
:102C9000E7BAF1EE10FA42DCFCEECA7A17EE903A8F
:102CA0009BB29DF80C109DF80D200229A4F812315A
:102CB00098BF002284F81421FFF718FB0123C4F801
:102CC000300184F82C31D4F83C310133C4F83C3164
:102CD0000AB0BDEC088B70BD47F6FF7370E79FED3F
:102CE000217AF2EE047A3BEE07BA2BEE27AAD7E65A
:102CF000B5EEC0AA4FF6FF73A4F80E31F1EE10FA4C
:102D0000C3D50023CDE74FF6FF73A3E7164B57E774
:102D1000154B8BE7144B6EE747F6FF736BE74FF6E7
:102D2000FF73BEE747F6FF7380E700BF00E0FF0FC9
:102D30000000800F0000807718B7D138E02E654280
:102D400000000000382B0024CDCCCCCC0AD7A3C384
:102D500067666666C3D5A3430000C84274B5D14810
:102D600000CCCC450000B4430080FFFF60B18288F6
:102D70004FF0B0414FF00043B2FA82F2D1F8800038
:102D8000D3400343C1F88030704700BF4FF0B042DA
:102D9000D2F88030D2F888100B4003F00103C2F85B
:102DA000883023B1024BD3F84001036818477047BD
:102DB000382B00244FF0B042D2F88030D2F888107F
:102DC0000B4003F00203C2F8883023B1024BD3F862
:102DD0004401036818477047382B00244FF0B04275
:102DE000D2F88030D2F888100B4003F00403C2F808
:102DF000883023B1024BD3F8480103681847704765
:102E0000382B00244FF0B042D2F88030D2F888102E
:102E10000B4003F00803C2F8883023B1024BD3F80B
:102E20004C01036818477047382B00244FF0B0421C
:102E3000D2F88030D2F888100B4003F01003C2F8AB
:102E4000883023B1024BD3F850010368184770470C
:102E5000382B0024F8B54FF0B043D3F88050D3F8A6
:102E60008820154005F47875C3F888507DB1084F67
:102E70000126B5FA85F4C4F11F0407EB840306FAB2
:102E800004F4D3F8400103689847A543F1D1F8BD95
:102E9000382B0024F8B54FF0B043D3F88050D3F866
:102EA0008820154005F47C45C3F888507DB1084F53
:102EB0000126B5FA85F4C4F11F0407EB840306FA72
:102EC00004F4D3F8400103689847A543F1D1F8BD55
:102ED000382B002430B1036882881B691A4214BF62
:102EE00001200020704700BF10B1036882889A61FA
:102EF000704700BF18B1838802681B049361704754
:102F000070B50D4682B00446164640B101680C4BC0
:102F10000C4A0B449B0A02EB4303B3F8CC0A59F06A
:102F2000C1FEC5F38101C5F3411305F01302CDE9DC
:102F30000016A18820685EF02FFA02B070BD00BFB5
:102F40000000FEA7187F0A0800B1D9E770472DE9F5
:102F5000F84FDFF85C832C23074603FB0083D3F88C
:102F6000905B002D00F08C81D3F8986B26B196F918
:102F70000630002B40F084812C2303FB0783D3F819
:102F80009C4B24B194F90630002B40F079817B1CD6
:102F9000DBB216B11522F371B27114B11622E371CE
:102FA000A2714FF02C09288D59F07CFE214609FBB7
:102FB00007F9304660F060FA304608EB090AB14E76
:102FC0009AF8A23B9AF8A02B002B0CBF4FF01E0BD7
:102FD0004FF03E0B5946FFF7B7FF20469AF8A12B5A
:102FE0005946FFF7B1FFDAF8903BA74814225C6816
:102FF00000214844DFF8BC9264F016FC236823F0FB
:1030000001032360A14B9C4215D1D6F8903043F4C4
:103010000013C6F89030D6F8903023F40013C6F8A9
:10302000903052F051FC974BDB69C3F30213994483
:1030300099F8F83C32E0964B9C420AD1D6F8903091
:1030400043F48003C6F89030D6F8903023F4800320
:10305000E5E7904B9C420AD1D6F8903043F4000348
:10306000C6F89030D6F8903023F40003D7E78A4BA7
:103070009C42D6D1D6F89C3043F08003C6F89C30F1
:10308000D6F89C3023F08003C6F89C3052F01CFC2C
:10309000336AC3F302134B4493F8F83C03F01F0365
:1030A0009FED7E7A9FED7E5AB0EE084AD8402C23E1
:1030B000F7EE003A002607EE900A03FB078840F27D
:1030C000145CF8EE677AB8F8A48BC7EE275A07EEBF
:1030D000908A9FED747AF8EEE77AC7EE274ADFED23
:1030E000727AB0EE007AE5EE877AA5EE875A25EE81
:1030F000844A37EE856A74EEE72AB8F5C87F06F190
:103100000107D5BF4FF4967278226423322307EE6D
:10311000907AD8BF4FF4167E1344A2F13202F8EE33
:10312000E76AC8BF4FF4827E07EE903AD4BF61468B
:103130004FF4FA7166EEA56AB8EEE77A7144C7EE0D
:10314000267A07EE102AB8EEC77A37EE447A77EE81
:10315000E37AFCEEE77A17EE903AC7EE267AFCEEB9
:10316000E77A17EE900A07EE90EAB8EEE73A07EE34
:10317000901AF8EEE77A23EE243A83EE277A37EEB8
:10318000453A32EEC77AC3EE267A77EEE37AFCEE62
:10319000E77A17EE901AC7EE267A77EEE37AFCEE1E
:1031A000E77A17EE902A02F1020E0EEB0109B0EE5B
:1031B000467A07EE909AF8EE677AA6EEA77AF4EED2
:1031C000C74AF1EE10FA55DC43EA000E5FFA8EFEB4
:1031D000BEF10F0F50D841EA020E1FFA8EFEBEF16B
:1031E000FF0F49D81B05000403F07F6392B200F47F
:1031F0007F0003432D4843EA067300EA01210B4395
:103200001343226822F001022260226822F4F8525D
:103210002260002223612368114643F001032360EA
:10322000A36823F40043A360A3686FF30A03A360B9
:10323000236823F440132360636823F4004363602E
:10324000236843F00103236095F82B0050F0E6FB60
:1032500095F82B0050F078FA002295F82A001146D4
:1032600050F0DCFB95F82A00BDE8F84F50F06CBA3E
:103270003E4642E7013198E70F2FF9D10023C0E71E
:10328000BDE8F88F00440258E825002400540040AF
:1032900000580040005C0040001C0058286B6E4E37
:1032A00000001643002474490000704200FFFF0034
:1032B000401A0024187F0A0808B1002220E670474F
:1032C00070B50E4C94F8F865AEB104F5876400252E
:1032D00003E001352034B5420DD0237F002BF8D018
:1032E000E06800220028F4D00135217DFFF708FEB8
:1032F0002034B542F1D1012070BD00BF0400002090
:1033000070B590F8723004461D09013D082D0FD8A4
:103310001A4E03F00F0336F8151041FA03F2D207E4
:1033200006D590F87520012AD0B205D0012070BDD5
:1033300094F875300120FAE798402E44013808408F
:1033400064F080FD96F8083D0D4A034402EBC30586
:1033500052F83320AB8810691840E8D0002394F865
:1033600073200221284684F87530FFF7C9FD226ECC
:10337000136843F008031360D8E700BF187F0A08FA
:10338000F81A002470B5154BBFF34F8F144903F59D
:103390008652C1F8683220339342FAD1BFF34F8F7F
:1033A000BFF36F8F0F4C40F22A430C4AB4F8A05A77
:1033B00004F654202946FDF727FE034618B10023E2
:1033C00084F8A23A70BDD4F8546A294604F6542011
:1033D00001227362BDE8704060F018BE40200124F5
:1033E00000ED00E0401A002419481A4B01681A4AFF
:1033F00041F4807130B482B00160D3F8F410FF243E
:10340000CA2041F48031C3F8F410D3F8F41001F469
:10341000803101915321019D546250625162D3F871
:10342000D030DB010CD40C4B00220C495A659A6554
:10343000DA651A665A669A66196502B030BC70473A
:10344000126D064B9A42EED102B030BC704700BFFD
:103450000048025800440258004000583166654256
:103460002DE9F84FD0F85C710446534B00F5967681
:10347000FDB227F0FF09826800F1E00A103D4846DE
:10348000D2F80080A3FB05352D0929465DF01EF911
:10349000D4F81C210023B2F5807F84F820317FD03E
:1034A0000DD8102A00F084805DD8012A46D0042A65
:1034B00016BF6FF400616FF008013C230EE0B2F517
:1034C000805F71D0B2F5803F3BD0B2F5806F15BF01
:1034D0006FF400616FF008013C230423324608F1C9
:1034E0001806404656F803C001EA0C01F150D4F822
:1034F0001CB159465CF0AAFEBBF5807F2ED024D8C3
:10350000BBF1100F3FD037D8BBF1010F02D0BBF198
:10351000040F34D14FF0080C336852462946484610
:1035200043EA0C0333604023C4F8E8305DF072F8DE
:103530003B6843F010033B60BDE8F88F6FF0080173
:10354000CCE76FF008013C23C8E7BBF5805F22D0D1
:10355000BBF5803F1AD0BBF5806F10D108F11C0677
:103560004FF0080CD8E7402A15BF6FF400616FF0E8
:1035700008013C230023B1E7BBF1400FCAD03C3621
:103580004FF4006CC8E74FF4006CC5E708F154062F
:103590004FF0080CC0E708F11C064FF4006CBBE7C5
:1035A0006FF00801042399E76FF40061042395E7A5
:1035B0006FF4006192E700BFABAAAAAA2DE9F04F11
:1035C000474D85B02B781BB9012005B0BDE8F08FC1
:1035D000444B5C6EFEF78AFE95F8F8350193002B9C
:1035E00000F0C781404B05F5C065404E0027A3FBA6
:1035F000042300955B09A6FB03263D4AF60802F268
:10360000347806EB8606A3EB4606D2F8483BC11A8F
:103610001346F2B203F6142A08EB86068946039293
:10362000B9F1000F05DB009BD3F824314B4500F3C3
:1036300087814FF4B4732A4A03FB072393F820379A
:10364000002B00F0BF80009D2A48D5F85C11AB68C4
:103650001A68CBB221F0FF01103BA0FB0303264800
:103660001B09C35C0B44A9895C68D368A4B223EA34
:103670000103C4F11604D360072C40F2A3801C4A56
:103680000121D5F86451D2F81C3A8B46AE46029718
:103690000133C2F81C3A00222868944614E0BCF1B9
:1036A000140F2BDC13F1080748BF03F117073B1178
:1036B0000CEB271C5F1E013102FA03F30BFA07F72C
:1036C0008C4247EA030219D303468C425EF8040F8A
:1036D000A0EB0303E3D8CCF115034FF0150CE9E799
:1036E00004000020401A00241F85EB51CDCCCCCC27
:1036F000FC100020ABAAAAAAE8150B08BCF1150F14
:10370000029F40F013819F48C2F38423C2F3441107
:1037100000EB830300EB8101D3F8143DD1F8141DB5
:103720001B0243EA011302F01F01C2F3C43200EB93
:10373000810100EB8202D1F8141DD2F8142D0B4345
:1037400043EA023383EA132282EA121202F00F02E2
:103750000F2A40F0EB80C3F30F134FF6FF72934232
:1037600000F0E480B3F5606F00F0EE80AAF80C3052
:1037700098F858200398824210D0B168D8F80020F9
:10378000521AC8F80020D8F80420316B521AC8F831
:1037900004200022B260326388F85800D8F8002074
:1037A0000132C8F80020B2680132B2604FF6FF72F1
:1037B000934207D1D8F804300133C8F80430336B92
:1037C00001333363009C013708F15C085C36204606
:1037D0000AF1140AFFF744FE04F5B4730093019B49
:1037E000BB427FF41DAF68490122002381F8182BEA
:1037F000C1F8483B6549D1F8083691F8D8261B68CE
:1038000012F0020FD1F81C171A6A0CBF0A4342EAE1
:1038100081021A62019B012B3FF4D6AE5B49D1F8BD
:10382000703791F840281B6812F0020FD1F8841805
:103830001A6A0CBF0A4342EA81021A62019B022BF8
:103840003FF4C2AE5149D1F8D83891F8A8291B6885
:1038500012F0020FD1F8EC191A6A0CBF0A4342EABF
:1038600081021A62019B032B3FF4AEAE4749D1F8A7
:10387000403A91F8102B1B6812F0020FD1F8541B3C
:103880001A6A0CBF0A4342EA81021A62019B042BA6
:103890003FF49AAE3D49D1F8A83B91F8782C1B68CB
:1038A00012F0020FD1F8BC1C1A6A0CBF0A4342EA9C
:1038B00081021A62019B052B3FF486AE3349D1F891
:1038C000103D91F8E02D1B6812F0020FD1F8241E74
:1038D0001A6A0CBF0A4342EA81021A62019B062B54
:1038E0003FF472AE2949D1F8783E91F8482F1B6811
:1038F00012F0020FD1F88C1F1A6A0CBF0A4342EA79
:1039000081021A62019B082B7FF45EAE204A52F8B6
:10391000203C92F8B0001B68D2F8F41080071A6AB5
:103920004CBF42EA81020A431A624DE6164AD2F8B7
:10393000183A0133C2F8183AAFB14FF6FF7317E7E0
:10394000002005B0BDE8F08F12494A7802EB420230
:1039500001EBC2023A44527C0D2A7FF407AF802269
:103960008AF81E2004E7294658220B4863F0FEFE21
:10397000E3E719460122044BC3F8481B83F8182BD0
:1039800022E600BF187F0A08FC1000200400002077
:1039900004100020401A0024BC1B00202DE9F04731
:1039A000046E90B0B74A05462368944223F4F87336
:1039B0002360A36823F00103A360236823F00103BD
:1039C000236000F07D81B04B9C4224D0AF4B9C42E1
:1039D00000F09281AE4B9C4200F0BF81AD4B9C4207
:1039E00000F07C81AC4B9C4200F0C581AB4B9C420B
:1039F00000F0CF81AA4B9C421AD1AA4BD3F8902059
:103A000042F00042C3F89020D3F8902022F0004208
:103A1000C3F890200CE0A34BD3F8902042F400327E
:103A2000C3F89020D3F8902022F40032C3F89020FD
:103A30002E79236806F0010916F00206D5F808A0D1
:103A40004FEA890295F8058018BF42F00802DF07A7
:103A500045D44FEA882320684FEA0821924F03F4A7
:103A6000805301F48061E71B0B439049B7FA87F755
:103A700001407F090B43BF00134323604FEA083323
:103A8000626803F4005322F4405213436360A36856
:103A900023F44073A3607B4B9C4200F03B817A4B44
:103AA0009C421FD0794B9C421CD003F580639C4202
:103AB00018D003F580639C4214D003F544439C4224
:103AC00000F02881A3F51C439C420BD003F58063D2
:103AD0009C4207D0E36A23F00F033B43E36210B03C
:103AE000BDE8F087724852F04FF90028F2D0BAF1E1
:103AF000000FEFD06F4B18F0010F03EB8703D3F8E3
:103B0000943DB0FBF3F000EB5A00B0FBFAF080B24A
:103B1000E060E36A23F00F0343EA0703E3620BD09C
:103B2000B9F1000F03D0636843F4803363601EB1C2
:103B3000636843F40033636095F874301BB16368C5
:103B400043F400436360A36818F0080F43F4805304
:103B5000A360236823F000532360636823F4904339
:103B60006360A36823F02A03A36003D0A36843F033
:103B70000803A360236843F001032360B9F1000F39
:103B800044D0D5F83C80B8F1000F00F0D5806B6CC4
:103B90005FFA88F728F0FF090022099304F1240353
:103BA000103F484600934FF4806305934FF48073B1
:103BB00003934FF480330A933F4BA3FB0737002353
:103BC00002933F0904933946CDE90B33CDE90D3318
:103BD0006B690193EB6808930023CDE906235CF041
:103BE00075FD6A46394648465CF014FDD8F8003049
:103BF00043F00103C8F80030304BA268DB5D42F0AF
:103C000040024B44A2605B689BB26B65002E3FF4A0
:103C100066AF2E6C002E00F08480F1B2AA6C264BA9
:103C200026F0FF07A1F1100509923846A3FB0535E0
:103C3000002301932D0908932946CDE90333CDE9EB
:103C40000633CDE90B33CDE90D334023029304F164
:103C5000280300934FF4806305934FF480330A9355
:103C60005CF034FD6A46294638465CF0D3FC336884
:103C700043F010033360236843F04003236010B027
:103C8000BDE8F087001001400044004000480040BB
:103C9000004C0040005000400014014000780040FB
:103CA000007C004000440258000C0058F369FFEF0C
:103CB00008000007187F0A08ABAAAAAAE8150B0893
:103CC0003B4BD3F8982042F01002C3F89820D3F869
:103CD000982022F01002C3F89820A9E6344BD3F8BC
:103CE000902042F48012C3F89020D3F8902022F460
:103CF0008012C3F890209BE62D4BD3F8902042F41D
:103D00008022C3F89020D3F8902022F48022C3F8B8
:103D100090208DE6274852F037F800283FF4DAAEBD
:103D2000E5E6236843F080032360236843F0400303
:103D3000236010B0BDE8F087236843F480732360EC
:103D4000A36843F00103A360236843F020032360CA
:103D5000236843F01003236058E7154BD3F89020F5
:103D600042F40022C3F89020D3F8902022F40022DD
:103D7000C3F890205CE60E4BD3F8982042F0200266
:103D8000C3F89820D3F8982022F02002C3F8982096
:103D90004EE6074BD3F8902042F08042C3F89020C3
:103DA000D3F8902022F08042C3F8902040E600BF74
:103DB000004402580803000738B50409013C082CE8
:103DC00018D80E4D00F00F0335F8140040FA03F236
:103DD00012F0010210D00122254402FA03F3013B44
:103DE000184064F02FF895F8083D054A034402EBAB
:103DF000C30038BD002038BD104638BD187F0A0802
:103E0000F81A00242DE9F047984D05EB0013D3F87C
:103E10008041002C00F08F80B3F88A7106464FEA8B
:103E20000019384658F03EFF01227B0907F01F07B2
:103E3000023BBA40082B0FD8DFE813F0BF00C700E1
:103E4000CF00D700DF000900E700EF00B700884986
:103E5000CB6F23EA0203CB6705EB0903013693F826
:103E60008401F6B2FFF7A8FF074610B11223C6710E
:103E7000837105EB090393F88501FFF79DFF8246E7
:103E800010B11323C671837105EB090393F8860102
:103E9000FFF792FF804610B11423C67183714D4421
:103EA00050462E2195F88821FFF74EF895F8892184
:103EB00040460E21FFF748F895F887212E21384615
:103EC000FFF742F823686B4A23F001039442236012
:103ED00033D0694B9C423ED1654BD3F8902042F4DD
:103EE0008042C3F89020D3F8902022F48042C3F897
:103EF0009020E36843F00043E360A36823F4F07389
:103F0000A3602368DA0716D4A1685C4A5C4B0A40B8
:103F10001343A360E368DB0042D5E268594B1340CA
:103F200043F0E863E360236823F400632360236DB8
:103F300023F001032365BDE8F0874D4BD3F89820AB
:103F400042F48052C3F89820D3F8982022F480528B
:103F5000C3F89820CDE74C4B9C4213D04B4B9C426E
:103F600063D04B4B9C426ED1414BD3F8982042F426
:103F70008012C3F89820D3F8982022F48012C3F856
:103F80009820B6E73A4BD3F8902042F40042C3F8A9
:103F90009020D3F8902022F40042C3F89020A8E7A4
:103FA000236843F480532360B7E73149D1F89C304C
:103FB00023EA0203C1F89C304EE72D49D1F898302E
:103FC00023EA0203C1F8983046E72949D1F8903036
:103FD00023EA0203C1F890303EE72549D1F8943036
:103FE00023EA0203C1F8943036E72149D1F8803042
:103FF00023EA0203C1F880302EE71D49D1F884304E
:1040000023EA0203C1F8843026E71949D1F88C303D
:1040100023EA0203C1F88C301EE71549D1F8883035
:1040200023EA0203C1F8883016E7114BD3F8982031
:1040300042F40052C3F89820D3F8982022F400529A
:10404000C3F8982055E7134B9C427FF452AF03F519
:104050000C33D3F89C2042F02002C3F89C20D3F804
:104060009C2022F02002C3F89C2042E7382B002439
:10407000004402580030014000380040E0FFBF8F8C
:1040800007000020FFFF39D8003C00400034014009
:10409000005001400014005808B51D20FFF78CFEA9
:1040A00010B190F9063053B11E20FFF785FE10B114
:1040B00090F9063003B108BD5523C38008BD5523D0
:1040C000C380F1E72DE9F8432A4E00EB400306EBED
:1040D000C3031D6F5DB11823044603FB006393F80F
:1040E000747027B193F87590B9F1000F01D1BDE854
:1040F000F883B3F8780058F0D5FD3846FFF75CFE3A
:1041000080464846FFF758FE631C0746DBB2B8F10D
:10411000000F04D05F2288F8073088F8062017B116
:10412000FB716023BB7118234046022103FB04642A
:1041300094F87620FEF708FF94F87720222138467D
:10414000FEF702FFAA690C4B42F00102AA6101E0EE
:10415000013B02D0AA69D207FAD5AB69DB07C6D505
:10416000AB6943F00203AB61AB6923F44073AB610D
:10417000BDE700BF401A0024A1860100F8B50E4C2F
:1041800094F8F875A7B104F5C064C7F109070925CB
:10419000013D0FD0A6683079FFF70EFE94F8DC10D1
:1041A000F27908B1FEF7ACFEAF4204F5B474EFD17A
:1041B0000120F8BDAB68FFDE04000020F0B4046EFF
:1041C000EFF31181502383F31288036C1A6802F015
:1041D0000102002A35D1466A856AAE422ED0856A30
:1041E000476A866AB74220D8866A82620269921B51
:1041F0001FFA82FC8269C9B22A44002580F8645003
:1042000040202062DA605A686FF30F0242EA0C0223
:104210005A601A6842F001021A60A36843F08003F2
:10422000A36081F31188F0BC7047426A866AA2EBF2
:10423000060C426A1FFA8CFC8262DBE7012380F8DD
:104240006430C9B281F31188F0BC7047027D034627
:10425000C0691F2A1B6805D9203A202101FA02F201
:10426000DA60ABE7202101FA02F29A60A6E700BF0C
:10427000BFF34F8F0549064BCA6802F4E06213434F
:10428000CB60BFF34F8F00BFFDE700BF00ED00E044
:104290000400FA0508B51D480023C0F88430BFF3B8
:1042A0004F8F436923F480334361BFF34F8FD0F8BE
:1042B000803043F6E074C3F34E3CC3F3C90E4FEABB
:1042C0004C1C0CEA0401734641EA8372013BC0F8BE
:1042D00074225A1CF8D1ACF1200C1CF1200FF0D143
:1042E000BFF34F8FBFF36F8FBFF34F8FBFF36F8F4E
:1042F0004369002223F400334361C0F85022BFF326
:104300004F8FBFF36F8F72B6FFF7B2FF00ED00E083
:1043100003689B0AA3F58013522B58D8F0B43A4C8B
:1043200023441B7D0D2B50D840794C24374D4FF042
:10433000020C870803EB830004FB03540CFA07FC10
:1043400003EB4000D4F8E0613844002945D0F76819
:104350002F4C47EA0C0704EB800CCCF83C15CCF84A
:104360004C25F760EFF31186502282F312882C213E
:1043700001FB0340D0F8382552B3111DC0F85C256D
:10438000244A03EB8300244F03EB400080000744E2
:104390001030024452F8040F08B10860011DBA42FF
:1043A000F8D10022F6B20A6086F311882C2202FBB3
:1043B0000344D4F85C25E2B14C2202FB0353D3F84A
:1043C000E021D36843F00103D360F0BC704770472D
:1043D000104A01FB03212431D3E7F46824EA0C04DA
:1043E000F4600B4C04EB8006C6F83C15C6F84C256F
:1043F000B8E74C2202FB0355D5F8E021D36823F03F
:104400000103D360E1E700BF187F0A08382B0024BE
:10441000401A0024781F0024981F002403689B0A78
:10442000A3F58013522B00D970470F4A13441B7D0C
:104430000D2BF9D84FF04C0C10B40C4C42790CFBFE
:1044400003400223D0F8E001DA409340C26829B962
:1044500022EA03035DF8044BC360704713435DF821
:10446000044BC360704700BF187F0A08382B002434
:1044700003689B0AA3F58013522B11D8094A1344F1
:104480001A7D0D2A0CD84079022307494FF04C0CB5
:10449000D8400CFB02128340D2F8E021DB431361C9
:1044A000704700BF187F0A08382B002401490248D2
:1044B000FCF716BD781F00240000014001490248A6
:1044C000FCF70EBD781F00240000014002494FF0A8
:1044D0008040FCF705BD00BFA41F0024014902482D
:1044E000FCF7FEBCD01F0024000400400149024834
:1044F000FCF7F6BCFC1F00240008004001490248FC
:10450000FCF7EEBC28200024000C0040F8B5164D46
:10451000164E2A69EB681A404FF00040B2FA82F357
:10452000EAB120FA03F3012A6FEA030302EA030166
:104530002B610A46F2D1D6F83C768FB1013F0023B9
:10454000BFB2C6F83C36D6F8384634B123682046A8
:10455000394698476468002CF8D10022DCE7F8BDA2
:10456000EF6ABFB2EFE700BF00100040401A00241E
:1045700001490248FCF7B4BCAC200024000401400F
:1045800010B5064C064804F26C61FCF7A9FC04F275
:10459000C4610448BDE81040FCF7A2BC401A0024E6
:1045A00000040140001C004001490248FCF798BC8F
:1045B000D82000240018004001490248FCF790BCB4
:1045C000302100240020004001490248FCF788BC4B
:1045D0005C2100240040014001490248FCF780BCF6
:1045E000882100240044014001490248FCF778BCBE
:1045F000B4210024004801401F4B984210B50ED052
:1046000003F5806398420AD01C4A03F58043984220
:1046100018BF904203D003F5806398421BD151F03C
:1046200053F9174B1749DC69DA69C4F3022CC2F35A
:10463000022201EB0C0393F8F83C03F01F03D8406F
:104640000F4B11491B69C3F3C03342EAC303CB5C70
:1046500003FB00F010BD51F037F9094B0949DC6943
:10466000DA69C4F30214C2F302120B1993F8F83C8E
:1046700003F01F03D840E3E7000001400040014081
:1046800000440258187F0A08C4150B082DE9F047AA
:104690000468A30AA3F58013522B70D815466E4AFE
:1046A00013441E7D0D2E6AD84C27DFF8C4810139D2
:1046B00007FB06FA89B208EB0A09C9F8EC11006891
:1046C000FFF79AFF08F5F073B0FBF5F0013807FB30
:1046D0000637C9F8E401391DD9F8E001A04200F01D
:1046E000B7800AF1080A0022C9F8E0415344C9F82A
:1046F000E821C3E9022299F81D3203F0FF02002BE2
:1047000000F0A3804C250223204605FB068585F892
:104710001D3251F07BFA0123B4F1804F85F8283225
:1047200085F81E3285F81F3285F8203285F821324F
:1047300085F8223285F8233285F8243285F825322F
:1047400085F8263285F8273285F81D32434BA4EBD5
:104750000303B3FA83F34FEA531356D0002B54D11B
:104760003F4A94420DD002F58062944209D002F58E
:10477000806294422BD002F57842944227D0BDE863
:10478000F0874C2303FB068393F81C22012AF6D002
:104790000221344A83F81D12A0680240A26001225F
:1047A00083F81D2283F81D126268A16822F070024E
:1047B00021F080014C2362600022A160012103FBF3
:1047C000068383F81D1283F81C22BDE8F0874C2273
:1047D00002FB068292F81C120129D0D0022182F835
:1047E0001D122049A06801401F48A1600121201A24
:1047F00082F81D120021B0FA80F082F81C121B4AC8
:104800004009944213D090B9B9E74C2202FB0682CA
:1048100092F81C120129B2D0022182F81D1211490E
:10482000A06801400020A160012182F81D124C22E5
:10483000022102FB068282F81D126268A1680BB990
:104840000028B3D022F47002B0E789F81C2259E79F
:10485000BDE8F04751F0DAB9187F0A0800000140BE
:10486000000400408800CEFF00040140000C00401E
:10487000382B002403689B0AA3F58013522B08D819
:104880002DE9F041304D2B441E7D0D2E02D9BDE89F
:10489000F08170470446FFF7F9FE4C222B4B02FBD8
:1048A000063393F81D22012A12D0206800232849DC
:1048B00051F8332090421DD001330E2BF8D1012244
:1048C000002011464FF0AAF8224B01221A60DEE7C1
:1048D0000221D3F8E02183F81D121F4B91680B4091
:1048E000062BE2D0B3F5803FDFD0136843F001031D
:1048F0001360DAE705EBC3050126164F95F8624A07
:104900003246314604F01F0520464FF087F81B2C35
:104910004FEA541806FA05F547F828500AD02E2C0D
:10492000B5D1324631462C204FF078F84FF4805301
:104930007B60ACE73246314619204FF06FF84FF0FC
:1049400000733B60A3E700BF187F0A08382B0024E0
:1049500074890A0800E100E0070001002DE9F04F2A
:10496000002391B0DFF8EC920093B14BB14DA3F668
:10497000C46AB14EB14C276899F86626BB0AA3F504
:104980008013522B00F2CC8053441B7D0D2B00F280
:10499000C780012A16F903B000F00181022A02D172
:1049A000BBF1080F3CD14FF000084146584610F0CB
:1049B000EDFF11F075F890F900C0BCF1000F18BFC1
:1049C000BCF1540F14BF4FF0010C4FF0000C40F03D
:1049D000DC8008F104081FFA88F8B8F1100FE4D160
:1049E000009B002B00F0A780924A0BE053441B7DF4
:1049F0000D2B0ED8F3565B450ED002F58672AA42F7
:104A000000F0958091680B689B0AA3F58013522BE8
:104A1000ECD900235B45F0D14B7961799942ECD117
:104A20001C34834B9C42A6D1009B05F5867501334F
:104A3000042B00939ED1824A4FF0010B92F8F83577
:104A400002F5876A01330293029B5B4565D099F8B2
:104A50007A36DAF80C6003939AF810300093002E3F
:104A60005BD0774A336855687648B288002D184481
:104A700001924FEA902040F39F806E4A002405E0A7
:104A8000013402F58672AC4200F0938011688142D5
:104A9000F6D1684A4FF48671019F01FB0424009A05
:104AA000CAF80C608AF81020019ACAF81840B2FAC5
:104AB00082FC0322CCF11F056800CAF80450B271D1
:104AC00086F807B002FA00F6A16C0122D4F854E08F
:104AD000314302FA00F002FA05F5A164216D0143A9
:104AE000D4F8AC00216556490E78A9B2002E00F02A
:104AF0003E8145EA0E0565659F61FBF7D3FA0BF130
:104B0000010B2046FBF7A2FA0AF1200A40F201133A
:104B1000BBF1090F2AF8043C96D111B0BDE8F08F23
:104B2000013A012A7FF67CAF4FF0000B3BE7BCF166
:104B3000000F7FF475AFA0680022434B04E0013200
:104B40000C33102A00F05D8359688842F7D152B2C5
:104B500061793846FDF7CCF83C4A0023416804E00F
:104B6000102B02F12C023FF45BAF5768184601335B
:104B7000B942F5D12C23364A03FB002090F9E430EA
:104B8000002B7FF44DAFAC604EE7009B002B7FF411
:104B90002BAF1C34264B9C427FF4EDAE44E7BBF1B7
:104BA000010F3FF400AF1C34214B9C427FF4E3AE75
:104BB0003AE7042C00F040824FF48671204A01FB52
:104BC000052211690591002900F0EF829060013003
:104BD0004FF054011C4FC4B29E4682F8101182F867
:104BE00011416A1C16494A60059A10685179D2F839
:104BF00008C0002204E001320C37102A00F00183C3
:104C00007B689C45F7D152B2CDF810E0FDF770F803
:104C10000B4B4FF48672DFF8348002FB0531002223
:104C2000049BD0E90170C1E90770414619E000BF5B
:104C3000DC8D0A080C000020D8150B08FC8C0A0833
:104C4000040000200000FEA704000024C40000248B
:104C500000000024382B0024102A01F12C013FF41D
:104C60005CAF4868944601328742F5D12C228349D3
:104C700002FB0C1C9CF9E420002A7FF44EAF4FF499
:104C800086728CF8E54054217D4802FB05F28CF8D1
:104C9000E41014467B4AA11006947B4C02F5607C1C
:104CA00000FB01F106982018C360C1EBC10302EBC1
:104CB000431201EBC10304F10801C0F8B4200CEB6E
:104CC0004313069AC0F8FC3033238C18C0F8B83070
:104CD0008C23C0F80031059B1B6818460493FFF72E
:104CE0008BFC039B062B00F0AD81072B6749684BBB
:104CF000684A18BF1A46684B18BF0B464FF48671B6
:104D0000B0FBF3F3B0FBF2F2013B5F48013A01FB69
:104D100005019BB2A1F8BC20A1F874302366069B64
:104D200003F1580100F10803049819440023A4F882
:104D300058306366E3655BF007FC049A136843F040
:104D400080031360059B5B791A4603930C2A1BD8DA
:104D5000DFE812F0F2011A001A001A00D0011A005E
:104D60001A001A00AE011A001A001A008B01CCF1C9
:104D70002F0C3F0402FA0CF242EA0E026265324640
:104D80009F61FBF78FF9BAE63F4A4FF486730498A8
:104D90004FF0020C03FB0523602208924FF480724F
:104DA000596903680E92012223F0010307910992C9
:104DB0000A2203600023CDE90B2C08AA0A930D9365
:104DC0000F935BF043FA07990023B1F5807F00F061
:104DD000038240F23A81B1F5805F00F0F981B1F5CC
:104DE000803F00F0F081B1F5806F15BF4FF4006295
:104DF00008223C23042304991831C8580243CA509E
:104E0000059B1879002840F0BE81049A136843F08E
:104E100001031360002304E0102B08F12C0800F0BC
:104E2000AE81D8F80420194601339742F4D1059396
:104E30002C22124B02FB0132D2F8C400174A9042D6
:104E400014BFA120A02057F02DFF0399059B0C292A
:104E500000F29281124A02EB4102B2F8C4CE4FF442
:104E6000867209490F4F02FB0512DDF810E007F5C5
:104E70003260A2F818C000221DE000BF000000242C
:104E80006B4CA4074018012404000020D0DD06006C
:104E9000449508001055220040771B000000024096
:104EA000187F0A08FC1000208E4500F08F81013227
:104EB000042A00F0A98150F832100029F4D1D7F863
:104EC0001C1B0131C7F81C1B07EBC2070499D20059
:104ED000C7F8201B81181846902223468F884CEA79
:104EE000070C0027A1F804C0BD49FCF76FFFBD4ABD
:104EF0004FF486734FF0400C4FF4403EBA4803FB2A
:104F000005234FF48052DD690793296841F01001B1
:104F10002960296841F014012960C4E91F77C4E9B8
:104F20002777C4E92977196AC4F878C04FF4806CF0
:104F3000C4F894100391E9B2C4F898E01039C4F8A9
:104F400084C025F0FF0CA0FB0101D3F8B800CDF818
:104F500010C0C4F890000909D3F80C80C4F8882068
:104F600008F11802A148059108F110082267069A75
:104F700070320244D3F8B40060674FF48040C4F844
:104F80008C0060465BF046FBD5F800E0069AC4F85A
:104F900020E0D5F814E0B832944BC4F824E0D5F8FA
:104FA00004E01A44039BC4F828E0D5F808E0C4F8EC
:104FB0002CE0D5F80CE0C4F8DC304FF48063C4F882
:104FC000C870C4F8CC30079BC4F830E0C4E930772F
:104FD000C4E93977C4E93B77DDE904C14FF4003710
:104FE00060464FF4006CC4F8E070D3F80071C4F868
:104FF000B880C4F8D8704FF48047C4F8D0C0D3F854
:10500000FC30C4F8D470C4F8BC305BF003FB2B68F0
:10501000B78863636B69A3636B68E363AB682364FE
:10502000EB6863642B6843F010032B602B6843F03C
:1050300014032B60336832E5032389F87B3611B003
:10504000BDE8F08F6A4A6B4B58E6102900F0D68015
:1050500000F2B180012900F0CF80042915BF4FF480
:10506000006208223C230023C5E604984FF48672B0
:105070005C49036802FB05124FF4805123F00103E1
:1050800051610222036000230A930D930F93602362
:1050900008934FF480730E93012309930A23CDE9FB
:1050A0000B3208AA5BF0D2F84FF400620423A2E6A8
:1050B00004984FF486724B494FF0600C03684FF030
:1050C000020E02FB05124FF4807123F001035161BF
:1050D00008AA036000230E910A930D930F930123F6
:1050E000CDE908C30A23CDE90B3E5BF0AFF80822F7
:1050F000042380E63B494FF48672049802FB0512B4
:10510000102103685161602223F0010308924FF4DB
:105110008072036000230E9201220A930D930F9375
:10512000022309920A22CDE90B2308AA5BF08EF82C
:1051300000234FF400625EE604984FF4867229491A
:10514000036802FB0512012123F001035161602273
:105150000360002308924FF480720A930D930F931B
:1051600002230E920A220991CDE90B2308AA5BF0D3
:105170006DF8002308223EE64FF0000C6FE64FF07A
:10518000FF31002353E6FEF717FE079038B1059B69
:105190000221DA79FDF7B4FE5422079BDA80049AE3
:1051A000536C43F4004353642FE6022389F87B36A3
:1051B00011B0BDE8F08F402915BF4FF400620822FE
:1051C0003C23002317E608223C2314E6D20081E6A4
:1051D0004FF4006204230EE6082204230BE600BF0E
:1051E0000100000004000020ABAAAAAA0C000020C5
:1051F000882A1100A0BB0D000822FCE54FF40062D4
:10520000F9E500235B68FFDE00239B88FFDE00BF1B
:105210002DE9F04FB24D8FB095F87C86B8F1000FB4
:1052200003D100200FB0BDE8F08F00222F214046AF
:1052300010F08CFC06460028F3D0036890F8059027
:10524000A84F0193A7F8A09AFCF77AFD0028E8D0B0
:10525000D0E901430293002CE3D0DFF8C0B2002272
:10526000594601E0102ADCD04B6894462C310132BB
:105270009C42F7D12C229C4B02FB0C3C9CF9E4A0F5
:10528000BAF1000FCDD1019B2F221846ACF8E420D3
:10529000C7F8543AFFF7B0F9944A904280F0FC8086
:1052A000012303930198FFF7A7F9039B9049C7F8DF
:1052B00058AAB0FBF3F2120A8E48A1FB0221002289
:1052C000C7F8642AC7F85C2A0A090909A0FB020288
:1052D000C7F8601A5208A5F880265200A5F87E2665
:1052E00097F8912A02F0FF01002A00F0E7800222DD
:1052F0000198814987F8912A50F088FC01224046A4
:1053000087F89C2A87F8922A87F8932A87F8942AA4
:1053100087F8952A87F8962A87F8972A87F8982A8F
:1053200087F8992A87F89A2A87F89B2A87F8912A7A
:10533000FEF742FDC5F8840628B12F21C1804E2119
:10534000F279FDF7DDFD6D4A0021029BB9F10C0FEA
:10535000C5F89416C5F88C36C5F8A416C5F8AC1671
:10536000C5F8B416C5F8B816D2F8D800C5F88846FE
:1053700040F00100C2F8D800D2F8D80000F00100D7
:1053800004900498D2F8D80040F00200C2F8D80087
:10539000D2F8D82002F002020592059A4FF040029E
:1053A000C5F890264FF48062C5F898264FF48052D5
:1053B000C5F89C264FF48042C5F8A0264FF4003271
:1053C000C5F8A8264FF00302C5F8B02679D84C4A94
:1053D00002EB4902B2F8E08EC2464A4A08F10808D8
:1053E0004949C5F8C02607EB8802C2F8541A5A4644
:1053F000002101E0102969D0536808462C320131A0
:105400009C42F7D1384B2C2202FB0032D2F8C40068
:105410003E4A904214BFA120A02057F043FC002038
:1054200001E0102850D0DBF8043001300BF12C0BD8
:105430009C42F6D107EB8807534660223449FCF7BB
:10544000C5FCD7F8540A4FF067F900287FF4E9AE9D
:10545000B479002760260C9063004A4606A92948C3
:1054600003F002030893E300CDE9066703F00803A5
:10547000002600270993CDE90A6756F03DFE002873
:105480007FF4CFAEA30749461E4822D550F032FC28
:10549000B0FA80F04009C5E60198FFF7ADF81D4A63
:1054A0001D490244A1FB021A4FEA9A5A0AF1FF3A37
:1054B0001FFA8AFA0AF101030393F3E687F8901AB8
:1054C00015E78A46884688E70020B3E74FF0FF30AB
:1054D00098E750F00FFBB0FA80F04009A2E600BF59
:1054E000382B0024401A002400000024006CDC0249
:1054F000598B4F01ABAAAAAA982400240044025851
:10550000187F0A0894240024C031002400000240BF
:10551000D502000000366E01819F5E16C400002493
:10552000F8B5134C94F8F23A03F0FF05002BF9D1CB
:10553000104B012693F8003784F8F26A03B9F8BDDE
:105540000D4AB4F8F07A138E34320C483946FBF722
:105550005BFD034610B184F8F25AF8BDD4F8A44AB2
:105560003246394605486362BDE8F8405EF04EBDFC
:10557000401A0024382B002400CB0024E42400240B
:1055800037B590F85F380446032B2FD10023204D08
:105590008DF807309DF8073094F860289A4201D8BA
:1055A00003B030BD9DF8073005EBC30393F808370F
:1055B0008BB181F0010383B19DF8073005EBC30384
:1055C000D3F80407FDF790FC9DF807300133DBB2F8
:1055D0008DF80730DEE70B46EDE79DF8073005EB69
:1055E000C303D3F80407FDF785FCEDE7D0E910030A
:1055F0009B7903F00103994204D003B0BDE8304029
:10560000FDF772BC03B0BDE83040FDF773BC00BFCE
:10561000382B002438B5044600790D4650B1FEF70A
:10562000CBFB08B10323C380E2792946BDE83840AB
:10563000FDF78ABC38BD10B504462221FFF7EAFF0A
:105640002046FEF715FF20460121BDE81040FEF779
:10565000E5BE10B504460121FFF7DCFF002120461E
:10566000BDE81040FEF7DABE38B510F8133CA0F6DE
:10567000640433BB94F85028002A33D1616AA36ACA
:1056800099421ED0A36AA169581CA062CB5CA06A93
:105690002169DBB2884200D3A2625B0043F400734D
:1056A000A4F854380A2384F85238012384F8503877
:1056B00094F85F38012B01D0042B02D1606CFFF706
:1056C000C8FF94F84C38002B6DD194F84D38013355
:1056D000DBB2092B84F84D3825D12046BDE838408F
:1056E000FAF7B8BD94F952586DB1B4F85418013DA9
:1056F00020464B0801F00101A4F85438FFF740FFA1
:1057000084F85258DDE7626AA36A84F850589A42D6
:10571000D7D194F85F38012B01D0042BD1D1606C24
:10572000FFF789FFCDE70A2B3DD194F84F382BB90D
:10573000B4F8563843F00103A4F856382379D90752
:105740000AD5B4F85608820501D4C30718D4B4F8B2
:105750005C380133A4F85C380122002384F84C281B
:1057600094F84F2884F84D38012A1CD16179606C77
:1057700084F84F3801F00101BDE8384056F0E6B931
:10578000E36AC0F3470013B1216B9847E4E7E3698C
:105790006269D054E369E2680133B3FBF2F102FBC2
:1057A0001133E361D8E738BD2DE9F84310F8133C15
:1057B000A0F664047BB1B4F8583801339BB2082BCF
:1057C000A4F858381BD90021606C84F85118A4F84B
:1057D000581856F0BBF9394F97F84487B8F1000FC5
:1057E00003D101212046FFF7CBFE94F850385BBB74
:1057F000626AA36A9A4204D1002387F84437BDE85D
:10580000F883B8F1020F12D808F1010814BFFF2382
:105810007F2387F84487A4F854380823606C84F801
:105820005238012384F85038BDE8F84311E7A36AE1
:10583000A269591CA162D35CA16A2269DBB29142C0
